:020000040000FA
:10000000771109080F38F8088838640889382238C9
:1000100090389036033691380F241510BB32BD321C
:10002000A7320608813FFE088F388F251910F70880
:100030008F38113683381036233805212310923239
:100040000321933268100008133A0325291002088F
:10005000123A032466100308133A032531102008CE
:10006000123A032054100308313A0320661031304D
:10007000823F3C1044104C100208B1380108A938E6
:100080009D390108AB3866100108A9389D3901086F
:10009000AB380208B13866100208A9389D39020849
:1000A000AB380108B13866100308133A03255A101B
:1000B0002008123A032466100008313C0321661020
:1000C000B1390108A9389D390108AB389239933903
:1000D000852072100008313C0321721095320321F3
:1000E0009632A7100008163A032578100208153A30
:1000F0000324A5100308163A032580102008153A9A
:1001000003209C100108AF3801082D3A0324A510E4
:1001100004082D3A0320A5102D3B9B381B30823F4D
:100120009310961099100208AD38A5100308AD3849
:10013000A5100108AD38A5100308163A0325A21032
:100140002008153A0324A510AD399539963922387F
:100150003930140E0325B410B939373000080321A3
:1001600001089B381B30B73801082F3A03241411BB
:1001700004082F3A032014112F3B9B381B30823F79
:10018000C310D810FE103730010E0325CA10050821
:10019000B33FD0100008373C0325D010FB08B33F15
:1001A000B93233308B3833308A3833308C381411CD
:1001B0003730010E0325DF100508B53FE5100008B4
:1001C000373C0325E510FB08B53FB93203082D3A4B
:1001D000032014112D30823FEF10F410F910353048
:1001E0008B388A398C3914118B3935308A388C39EF
:1001F00014118B398A3935308C3814118B398A397E
:100200008C396408B53803082D3A032014112D30B9
:10021000823F0C110F11121164088B3814116408FD
:100220008A38141164088C382238100000007100DC
:1002300002001D0000000200000073000200270001
:10024000000002000000750002002900000002000A
:100250000000770002002B0000000200000079007F
:1002600002002D000000020000007B0002002F00B1
:100270000000020000007D000200310000000200CA
:1002800000007F0002003300000002000000810037
:100290000200350000000200000083000200370069
:1002A000000002000000850002003900000002008A
:1002B0000000870002003B000000020000008900EF
:1002C00002003D0000000200000068000200120071
:1002D0000000030000006B00020015000000030096
:1002E00000006E0002001800000003000000531A16
:1002F0003F1A011820380208273A03247B11A73936
:100300001D188521AC110008313C0321AC11062BCE
:10031000862B8A398C399832032199320108193A8F
:1003200003259411F408183A0320991164088B38B6
:10033000AC110108193A03259F11F508183A032456
:10034000AC118B390308193A0325A811E808183AAB
:100350000324AC11983999399C3985219C321C3081
:10036000010E03257B110008313C03217B1100089D
:100370002F3C0325BF118B398A398C39C4112F309A
:10038000010E0325C411A8185E1A0D1AC9197B1194
:1003900022380308313A03200C123130823FD21147
:1003A000D511F611062B862B0C1206083B3A0320BA
:1003B000DB11062FE51106083B3A0324E511062B55
:1003C0000A083B3A0324E511BB3909083D3A0320EA
:1003D000EB11862F0C1209083D3A03240C12862BD0
:1003E0000A083D3A03240C12BD390C1208083B3AA6
:1003F0000320FC11062F061208083B3A03240612BC
:10040000062B0A083B3A03240612BB39862F0A083A
:100410003D3A03240C12BD3922380308293A03203F
:100420003E122930823F161218122812862A3E12D6
:10043000862EAB3B1D309B389D321E081B3A032491
:100440003E1200082B3C03253E12A9399D393E126D
:10045000862E1D309B389D320A081B3A03243E121B
:10046000AB3B00082B3C032538129D39A9393E12BD
:100470002B30010E03253E129D39862A22380208B0
:10048000023806088138853986390F080538000892
:100490000638F0080938FF080B38FF080D38000847
:1004A0000E388F392238D0088438FF08043A0320E8
:1004B0005C12803984325512803922380520671247
:1004C0002F300008032101089B381B30AF38223839
:1004D0008200000000008200000000008200000096
:1004E0000000820000008200000082000000820004
:1004F00000008200010082000100820000008200F2
:1005000000008200000082000000820000008200E3
:0605100000008200000063
:00000001FF
